:020000040800F2
:10000000C0040020A1010008DF15000895140008B5
:10001000DD150008AD0200087D1600080000000094
:10002000000000000000000000000000E3150008D0
:10003000ED02000800000000E1150008E5150008C9
:10004000BB010008BB010008BB010008BB010008A0
:10005000BB010008BB010008BB010008BB01000890
:10006000BB010008BB010008BB010008BB01000880
:10007000BB010008BB010008BB010008BB01000870
:10008000BB010008BB010008BB010008BB01000860
:10009000B1020008BD020008C9020008BB01000847
:1000A000BB010008BB010008BB010008BB01000840
:1000B000BB010008BB010008BB010008BB01000830
:1000C000BB010008BB010008BB010008BB01000820
:1000D000BB010008BB010008BB010008BB01000810
:1000E000BB010008BB010008BB010008BB01000800
:1000F000BB010008BB010008BB010008BB010008F0
:10010000BB010008BB010008BB010008BB010008DF
:10011000BB010008BB010008BB010008BB010008CF
:10012000BB010008BB010008BB010008BB010008BF
:10013000BB010008BB010008BB010008BB010008AF
:10014000D5020008BB010008E1020008BB0100085D
:10015000BB010008BB010008BB010008BB0100088F
:10016000BB010008BB010008BB010008BB0100087F
:10017000BB010008BB010008BB0100080000000033
:10018000BB010008BB010008DFF810D000F07CF8CC
:100190000048004715170008AFF30080C004002096
:1001A0000648804706480047FEE7FEE7FEE7FEE711
:1001B000FEE7FEE7FEE7FEE7FEE7FEE76D16000856
:1001C000890100082DE9F05F0546002092469B4614
:1001D00088460646814640241BE02846414647465D
:1001E000224600F041F853465A46C01A914110D3B6
:1001F00011461846224600F028F82D1A67EB010830
:100200004F4622460120002100F01FF817EB00099D
:100210004E41201EA4F10104DFDC484631462A4647
:100220004346BDE8F09FD2B201E000F8012B491E21
:10023000FBD270470022F6E710B513460A46044683
:100240001946FFF7F0FF204610BD202A04DB203AB4
:1002500000FA02F1002070479140C2F1200320FA19
:1002600003F3194390407047202A04DB203A21FA17
:1002700002F00021704721FA02F3D040C2F12002BF
:100280009140084319467047064C074D06E0E06868
:1002900040F0010394E8070098471034AC42F6D3CD
:1002A000FFF776FF88170008A8170008FEE7000090
:1002B000014800F0AEB900006C000020014800F0D9
:1002C000A8B900006C000020014800F0A2B90000AD
:1002D0006C000020014800F09CB900009400002050
:1002E000014800F096B9000094000020704790F893
:1002F0002020012A07D0022A05D0416A41F480213A
:10030000416201207047006842690A43426100204F
:100310007047F0B590F820500468A468012D05D00E
:10032000022D03D0416A41F480215DE014F0406F5A
:1003300001D1E50055D5C4F30164022C03D9416A0B
:1003400041F4000150E00125A5401D608D684FF487
:10035000C0739DB1CE6835434E6845EAC605066850
:1003600003EB0417F5514FF4C275076805EB04154C
:100370000E697E51097D012905D009E00E88CD68FE
:1003800045EA4655EBE701684E5946F480764E51F2
:100390001179D579567941EA056195792D0445EAB7
:1003A000062529434FF4C676056806EB0416A951C5
:1003B0001178D57841EA0561957852782D0445EA9F
:1003C000022211434FF4C475026805EB0415515124
:1003D000006803EB0411425842F001024250002031
:1003E000F0BD416A41F4001141620120F0BD0000FE
:1003F00010B590F82020012A07D0022A05D0416AC2
:1004000041F480214162012010BD3B48D0F8002218
:1004100042F00102C0F80022D0F8002222F47C52FF
:10042000C0F80022D0F800224B6A42EA0322C0F84A
:1004300000220A7D02F01F0301229A40D0F81C32EC
:100440009343C0F81C32CB69B3B9D0F80C32934354
:10045000C0F80C328C894B6864F31F434C6900EB85
:10046000C404C4F840320C890B6864F31F434C6920
:1004700000EBC404C4F84432CB69012B16D1D0F888
:100480000C321343C0F80C320C884B6864F31F43E2
:100490004C6900EBC404C4F840320C89CB6864F3A7
:1004A0001F434C6900EBC404C4F844328B69002B31
:1004B000D0F804320ED01343C0F804320B69002B7D
:1004C000D0F8143208D01343C0F81432096A012955
:1004D00004D008E09343EFE79343F5E7D0F81C120C
:1004E0001143C0F81C12D0F8001221F00101C0F82D
:1004F0000012002010BD000000640040704730B5BD
:1005000090F82040012C05D0022C03D0416A41F420
:1005100080215DE00468002955D02469A40754D0E7
:100520004FF4D874056804EB01142D5915F0040537
:10053000956005682D594ED0ED08556005682C5919
:1005400004F00204D4604FF4DA74056804EB01147B
:100550002D5905F00F05156105682D59C5F30725BF
:10056000956105682C59240C54614FF4DC720468C1
:1005700002EB0112A4581C700468A458240A5C7091
:100580000468A458240C9C700468A258120EDA70F7
:100590004FF4DE72046802EB0112A4581C71046867
:1005A000A458240A5C710468A458240C9C71046843
:1005B000A258120EDA71006881B1016941F0200180
:1005C0000161002030BDE468A8E7416A41F40011F0
:1005D0004162012030BD6D0D1560AFE7C16841F08B
:1005E0002001C160EDE70246002092F820100129A9
:1005F00001D002290CD111688A68520100D501206E
:100600008A68120100D5401C8968C90000D5401CC9
:1006100070472DE9F05F0546006800244669D0F870
:1006200004908768D0F80CB0D0F810A0D0F81880EB
:10063000F10748D0F90714D001218160B80703D52C
:10064000284600F0E8FA0CE0780702D54FF4006481
:1006500007E0380702D54FF4805402E0284600F046
:10066000D9FAF80516D529684FF480708860B80566
:1006700003D5284600F0D1FA0CE0780502D544F401
:10068000005407E0380502D544F4804402E02846CF
:1006900000F0C2FAF80316D529684FF4803088605C
:1006A000B80303D5284600F0BAFA0CE0780302D567
:1006B00044F4004407E0380302D544F4803402E0F7
:1006C000284600F0ABFA300707D55FEACB6004D5C7
:1006D0002968102044F40074C86070074FF00807C0
:1006E00007D55FEA0B7004D52868C760284600F07C
:1006F000B5F9B00706D52868C068800702D028463B
:1007000000F0AEF9700607D55FEACA6004D5296823
:10071000102044F480640861B00607D55FEA0A70CF
:1007200004D528680761284600F0D0F9F00606D500
:1007300028680069800702D0284600F0C9F9B00394
:1007400008D55FEAC96005D52968102048602846A9
:1007500000F032FAF00307D55FEA097004D5286883
:100760004760284600F05CFA300446D55FEA4970DD
:1007700040D5F00504D55FEAC87001D044F001040B
:10078000B00504D55FEA887001D544F00204700515
:1007900004D55FEA487001D544F00404300529D53A
:1007A00018F0700F26D008F07000402815D006DC35
:1007B000102809D020280AD0302816D10AE0502865
:1007C0000ED0602811D10EE044F008040DE044F092
:1007D00010040AE044F0200407E044F0400404E080
:1007E00044F0800401E044F480742868816921F0B9
:1007F00070018161296804204860002C05D0686A76
:10080000204368622846FFF779FEBDE8F09F70B587
:10081000040003D094F8200010B104E0012070BD62
:10082000204600F081F82068016821F00201016093
:1008300000F0FCFA0546052604E000F0F7FA401B3C
:100840000A2811D8206840688007F6D4206801681B
:1008500041F00101016000F0E9FA05460BE000F00B
:10086000E5FA401B0A2806D9606A40F4003060624D
:1008700084F82060D2E720684068C007EFD0207E6F
:100880000128206801683DD021F080010160607E70
:1008900001282068016838D021F040010160A07E65
:1008A00001282068016833D021F020010160E07E3A
:1008B0000128206801682ED041F010010160207FDE
:1008C00001282068016829D021F008010160607FBB
:1008D00001282068016824D021F004010160D4E9D6
:1008E00002010843D4E90412114308436168491E18
:1008F00008432168C86100206062012084F820005C
:10090000002070BD41F08001C0E741F04001C5E723
:1009100041F02001CAE721F01001CFE741F00801C2
:10092000D4E741F00401D9E72DE9F04387B004464C
:1009300014216846FFF77EFC444B4548DFF80881E8
:100940001968D4F800C0424A022503260927DFF8B7
:10095000049110300024491CC44534D11960012988
:1009600007D1016841F000710160006800F000707B
:100970000590106840F002001060106802AB00F0B3
:10098000020005904FF44070CDE9000583E8D000E7
:100990006946484600F046F900220121142000F083
:1009A000B3FA142000F0A2FA00220121152000F071
:1009B000ABFA152000F09AFA00220321162000F06D
:1009C000A3FA16203BE0DFF89080C44539D1D0F877
:1009D00000C04CF0806CC0F800C0D0F800C0012905
:1009E0000CF0806CCDF814C0196007D1016841F09B
:1009F00000710160006800F000700590106840F020
:100A000002001060106802AB00F0020005904FF485
:100A10004050CDE9000583E8D0006946484600F023
:100A200001F900220221402000F06EFA402000F07F
:100A30005DFA00220421422000F066FA422000F014
:100A400055FA07B0BDE8F0830064004020000020A4
:100A50003038024000040240006800407047000047
:100A600000B5184A89B0164B002102F14400FFF787
:100A700046FD14481C30FFF7B6FD00281DD0114874
:100A80000F4A06A9006800900820049000208DF805
:100A9000140003900290135C0B54401CC0B2082851
:100AA000F9D3074B07480A46183B69461C30FFF745
:100AB00030FC05494AF6AA20086009B000BD0000D4
:100AC0001800002050000020003000407047000057
:100AD00070B5354C88B04021204600F099F90122CC
:100AE0008021204600F09CF9314A304B012102F16F
:100AF0003800FFF704FD2E486030FFF774FD002832
:100B000022D02B480023082501682848274A10389E
:100B10008468A1421AD0C668B14217D000910495EA
:100B20008DF814300393002006A90293135C0B5434
:100B3000401CC0B20828F9D31C4B1D480A460C3B88
:100B400069466030FFF7E5FB08B070BDA14202D0F6
:100B5000C0688142F8D100918DF81430039302935C
:100B60000495022106AB545C5C54491CC9B20829A7
:100B7000F9D3117861F30700517861F30F206E21EA
:100B800000F09CFD8DF81800000A8DF81900074B45
:100B900007480C3B06AA69466030FFF7BAFB0549D7
:100BA0004AF6AA200860CFE70000024010000020AB
:100BB00034000020003000407047000070B504464B
:100BC00090F82000012804D0606A40F400206062A0
:100BD00018E0022084F820002068016821F001015B
:100BE000016000F023F905460EE000BF00F01EF999
:100BF000401B0A2808D9606A40F400306062052072
:100C000084F82000012070BD20684068C007EDD145
:100C1000606270BD7047704770477047704770479B
:100C2000704700002DE9F84FDFF8B8A10022012538
:100C30000AF1040B03264FF00F090BF1040E00BF5D
:100C40000B6805FA02F42340A3426FD10F7907F035
:100C50000307012F01D0022F16D187684FEA4208FF
:100C600006FA08FC27EA0C07D1F80CC00CFA08FCBD
:100C70004CEA070CC0F808C04768A7430C79C4F3D6
:100C8000001494403C4344600C79E443A4070AD028
:100C9000C4684FEA420C06FA0CF7BC438F6807FAA7
:100CA0000CF72743C7600C7904F00304022C12D11F
:100CB000D40800EB840CDCF820405707FF0E09FA3B
:100CC00007F824EA0804D1F8108008FA07F848EA7F
:100CD0000408CCF8208004684FEA420C06FA0CF7AE
:100CE000BC430F7907F0030707FA0CF727430760A7
:100CF0004C68E40070D53C4C276847F48047276077
:100D0000246822F0030704F480440094374C07EB76
:100D1000040CDCF8084897074FEA177809FA08F737
:100D2000BC43334FB84202D1002724E054E0314F96
:100D3000B84201D101271EE02F4FB84201D102274E
:100D400019E02E4FB84201D1032714E02C4FB842CE
:100D500001D104270FE02B4FB84201D105270AE04B
:100D6000294FB84201D1062705E0284FB84201D1EA
:100D7000072700E0082707FA08F72743CCF8087888
:100D8000DAF800405746D1F804C09C435FEACC3CF7
:100D900000D51C433C60DBF800405F46D1F804C03E
:100DA0009C435FEA8C3C00D51C433C60DEF800406D
:100DB0007746D1F804C09C435FEACC2C00D51C4395
:100DC0003C60084F0C373C68D1F804C09C435FEA94
:100DD0008C2C00D51C433C60521C102AFFF430AF11
:100DE000BDE8F88F003C014044380240003001402B
:100DF000000002400004024000080240000C0240D3
:100E0000001002400014024000180240001C024082
:100E1000426921EA02030A4043EA024181617047C4
:100E20000AB1816170470904FBE70000014880684E
:100E300070470000240000200248816802781144B5
:100E400081607047240000200B4810B5016841F410
:100E500000710160016841F480610160016841F442
:100E600080710160032000F06FF8002000F006F8A8
:100E700000F024F8002010BD003C024070B50D4D7C
:100E800004464FF47A712878B1FBF0F00A490968FA
:100E9000B1FBF0F000F0EAFA48B9102C07D20022BA
:100EA0002146501E00F030F800206C6070BD01201B
:100EB00070BD000024000020300000200A4808B562
:100EC000016841F480410160006800F480400090B6
:100ED0000548001F016841F080510160006800F082
:100EE0008050009008BD000044380240002809DB13
:100EF00000F01F02012191404009800000F1E02034
:100F0000C0F8001170470000F0B40E4B1B680C468F
:100F1000C3F30223C3F10705042D00D90425191DCD
:100F2000072901D2002300E0DB1E012606FA05F1A5
:100F3000491E214099409E40761E16403143F0BC28
:100F400000F09DBB0CED00E0064900F007020868C8
:100F50004FF6FF03184040EA0220034A104308609E
:100F6000704700000CED00E00000FA052DE9F047A5
:100F70000E46050065D0DFF81481D8F80000F7B2FE
:100F800000F00700B04207D288F80070D8F80000DF
:100F900000F00700B04254D128683D4C810712D5BB
:100FA000400703D5206840F4E0502060287800070F
:100FB00003D5206840F4604020602068A96820F0D4
:100FC000F000084320602878C0072DD030496868B9
:100FD0000839012812D0022813D0032811D009683B
:100FE000890700292DDA216821F0030101432160DE
:100FF000FFF71CFF814641F2883A0EE00968890339
:10100000EFE709688901ECE7FFF710FFA0EB0901A2
:10101000514502D90320BDE8F0872068696800F0D7
:101020000C00B0EB810FEFD1D8F80010404601F072
:101030000701B14207D90770006800F00700B0420D
:1010400001D00120E7E72878400705D52068E96846
:1010500020F4E050084320602878000706D5206877
:10106000296920F4604040EAC100206000F018F8CF
:101070002168084AC1F30311515CC8400649086061
:1010800006480068FFF7FAFE0020C4E7003C024073
:10109000083802407817000830000020280000209F
:1010A000154810B5006810F00C02144813D0411018
:1010B000042A0FD0082A0ED10F4C241F226823685F
:1010C00002F03F025B0207D52068C0F38810A0FB46
:1010D000010106E0084610BD2168C1F38811A1FB9B
:1010E00000010023FFF76EF82168C1F30141491C9C
:1010F0004900B0FBF1F010BD083802400024F400B4
:101100002DE9F84F04006ED02078DFF84C93C0072B
:10111000A9F104054AD009F104000168C1F3810175
:10112000012908D00068C0F3810002280AD1D9F84B
:101130000000400206D52868800337D56068002883
:10114000E1D033E06068B0F5803F10D0B0F5A02F5B
:10115000286810D020F480302860286820F480208F
:1011600028606068A8B1FFF761FE06460DE02868B8
:1011700040F48030F4E740F480202860F7E700BFB7
:10118000FFF754FE801B642873D828688003F7D5C6
:101190000CE0FFF74BFE064605E000BFFFF746FEFA
:1011A000801B6428F0D828688003F7D42078DFF803
:1011B000AC8280074FF0000A3ED5A748001D0168A9
:1011C00011F00C0F08D00068C0F3810002280BD189
:1011D000D9F80000400207D42868800716D5E068D7
:1011E000012800D112E033E1E068B8B10120C8F86D
:1011F0000000FFF71BFE064605E000BFFFF716FEE6
:10120000801B0228C0D828688007F7D52868216984
:1012100020F0F80040EAC10028600DE0C8F800A006
:10122000FFF704FE064604E0FFF700FE801B0228DD
:101230001FD828688007F7D42078000722D5864F6A
:1012400087486169703771B101210160FFF7EEFDD8
:10125000064604E0FFF7EAFD801B022809D838683B
:101260008007F7D50EE0C0F800A0FFF7DFFD0646C7
:1012700005E082E0FFF7DAFD801B02287DD83868A0
:101280008007F7D42078400768D5DFF8CCB1002775
:101290000BF13C0BDBF80000C0000BD4DBF80010B6
:1012A00041F08051CBF80010DBF80000012700F07E
:1012B000805000906B4E3068C00510D4306840F408
:1012C00080703060FFF7B2FD009005E0FFF7AEFDE3
:1012D0000099401A022850D83068C005F6D55E4EF5
:1012E000A0686C3601280FD00528306810D020F097
:1012F00001003060306820F004003060A068B8B1B0
:10130000FFF794FD00900FE0306840F00100F4E733
:1013100040F004003060F7E7FFF788FD0099411ABC
:1013200041F28830814266D830688007F4D50EE0FB
:10133000FFF77CFD009007E0FFF778FD0099411A68
:1013400041F28830814256D830688007F4D42FB1FA
:10135000DBF8001021F08051CBF80010A069C8B371
:101360003D49091D0968C1F3810102294AD00228BB
:10137000504607D0C8F8600000E03CE0FFF756FD9B
:1013800004463BE04746C8F86000FFF74FFD0646BD
:1013900005E000BFFFF74AFD801B02282BD8286814
:1013A0008001F7D4D4E907010843A16A2E4A49080D
:1013B00002EB0141626A41EA8211084394F82C1061
:1013C00040EA0161C9F8001001203866FFF72EFDE0
:1013D000044606E03EE000BFFFF728FD001B0228A0
:1013E00009D828688001F7D534E000BFFFF71EFD5B
:1013F000001B022802D90320BDE8F88F286880016D
:10140000F4D427E00128F7D0D9F80000E26900F40D
:10141000800191421CD1226A00F03F01914217D114
:1014200047F6C071626A0140B1EB821F10D1A26A17
:101430004FF0FF3300F4403103EB5202B1EB024FA7
:1014400006D194F82C1000F07060B0EB016F01D061
:101450000120D1E70020CFE70438024000004742D6
:10146000800E4742007000400000FFFF10B5401E94
:10147000B0F1807F01D3012010BD4FF0E024606106
:101480000F21601700F0FBF80020A0610720206109
:10149000002010BDFEE70000084945F255520A60E1
:1014A00007224A6000EB8000C0F3571088604AF6BC
:1014B000AA2008604CF6CC4008607047003000401D
:1014C00030B514488BB01249016006210024C0E9F0
:1014D00001140904C0E90341C900416104760125F2
:1014E00045768576C57604774577FFF790F9CDE99F
:1014F00006450594009401940294CDE903450E201D
:10150000CDE9085069460348FEF772FF0BB030BDC5
:10151000006400406C00002030B514488BB01249C4
:10152000016006210024C0E901140904C0E9034157
:10153000C90041610476012545768576C576047734
:101540004577FFF764F905A90E2081E8310003947F
:101550000494CDE90850009401940294694603482C
:10156000FEF746FF0BB030BD00680040940000203D
:1015700030B587B014216846FEF75CFE154800249C
:10158000016841F080010160016801F0800105916E
:10159000016841F001010160016801F0010105915C
:1015A000016841F00201016000680B4D00F002008B
:1015B00005900022C0212846FFF732FCC020009091
:1015C0000120CDE90104694628460394FFF72AFB70
:1015D00007B030BD3038024000000240FEE7FEE7B1
:1015E00070477047FFF728BC30B593B0302168468C
:1015F000FEF720FE14210CA8FEF71CFE194800255A
:10160000016841F080510160006800F08050119045
:101610001548016841F4804101600068022400F42B
:101620008040119001200090000401908001CDE9DC
:10163000064006200890D820CDE9090404200B902C
:101640006846FFF75DFD0F20CDE90C0480200E9069
:101650004001CDE90F0502210CA8FFF787FC13B06C
:1016600030BD000040380240007000400248016870
:1016700041F470010160704788ED00E0FEE7090762
:10168000090E002804DB00F1E02080F80014704708
:1016900000F00F0000F1E02080F8141D704702E018
:1016A00008C8121F08C1002AFAD1704770470020ED
:1016B00001E001C1121F002AFBD1704708B50B469B
:1016C00000F00AF858436421B0FBF1F000F010F884
:1016D0000090BDF8000008BDC0F30721642211FB93
:1016E00002F1C0B2C82210FB02F000EBD11070472B
:1016F00008B5002101E0C838491CC828FBD88DF87E
:101700000010C0016421B0FBF1F08DF80100BDF8BC
:10171000000008BDFFF798FBFFF766FFFFF728FF03
:10172000FFF7CEFEFFF7F8FE1148FFF747FA104823
:101730002830FFF743FA10210D48FEF7D8FD0C487A
:1017400002212830FEF7D3FD0A4C40212046FFF746
:101750005FFB80212046FFF75BFB002280212046B3
:10176000FFF75EFB4FF47A70FFF796FEFEE700008E
:101770006C0000200000024000000000000000009B
:101780000102030406070809A8170008000000204A
:10179000340000009E160008DC170008340000200A
:1017A0008C040000AE1600080000000000000000DD
:1017B00014020000150200000000000000000000FC
:1017C0000000000000000000000000000100000018
:0C17D00010000000000000000024F400E5
:040000050800018965
:00000001FF
